:03000000020DC628
:0C0DC600787FE4F6D8FD758148020E0D20
:100FE5000228000002210000022600000123000162
:060FF5002A0102240000A5
:10113000438901758CF1758A0AD2AFD2A9C28C227B
:03000B000211627D
:03116200C28C320A
:100D3600E4F51DF51E121130EF24BA602224F4608A
:100D4600382406704CD2A07F197E0012111FC2A053
:100D560030A1FDD28C30A103208CFAC28C8032D215
:100D6600A27F0A7E0012111FC2A230A3FDD28C30D0
:100D7600A303208CFAC28C8018D2A47F197E00129D
:100D8600111FC2A430A5FDD28C30A503208CFAC257
:100D96008CAF8CEF240FFFEFFEAD8AED24F6FDE459
:100DA60034FFFCE42DFDEE3CFCE41208A57BF67A4C
:0F0DB6002879BC78401208031208DE8E1D8F1EAC
:010DC500220B
:101074007F4C120D368E288F297F46120D368E2610
:0C1084008F277F52120D368E218F222202
:020F2800AC0714
:100F2A00E4F51CF51DEC24DCFFE43405FEC374DC97
:100F3A009DF51D74059400F51CD29012111FC290E4
:100F4A00D291AF1DAE1C12111FC2917F0F7E0002FB
:020F5A001090F5
:100F8F008F1DE51DD394004021D2907F367E06122F
:100F9F00111FC290D2917F367E0612111FC2917F10
:0B0FAF00147E00121090151D80D82247
:100FBA008F1DE51DD394004021D2907F827E0512B9
:100FCA00111FC290D2917F827E0512111FC2917F9A
:0B0FDA00147E00121090151D80D8221C
:05115800AF31020F8F12
:05115D00AF33020FBAE0
:0611400012115D02115DB9
:0611460012115D02115DB3
:06114C00121158021158B7
:040FFB0002370000B9
:100EE600751904751AC8751BC8EF24F4600F24F72A
:100EF6006013146014240B701674EC800274C425FD
:100F06001AF51A800A74EC800274C4251BF51BE5D9
:100F160019D39400400BAD1BAF1A120F2815198078
:010F2600EEDC
:010F270022A7
:1009C2008F18E51864016003020A66D3E529953899
:1009D200E5289537402DD3E529952FE528952E401A
:1009E2001ED3E538952FE537952E40047F0C806A9B
:1009F200D3E538952FE537952E50627F0B805BE467
:100A0200FF8057C3E5299538E5289537502CC3E573
:100A120029952FE528952E501DE538952FE5379518
:100A22002E40047F158033C3E538952FE537952E88
:100A3200502B7F168024E4FF8020D3E538952FE5E4
:100A420037952E40047F0B8011C3E538952FE5378B
:100A5200952E50047F158002E4FF120EE68528379A
:100A620085293822E51864026003020B07D3E522C8
:100A72009538E5219537402DD3E522952FE521952F
:100A82002E401ED3E538952FE537952E40047F166C
:100A9200806AD3E538952FE537952E50627F158011
:100AA2005BE4FF8057C3E5229538E5219537502C4A
:100AB200C3E522952FE521952E501DE538952FE5AA
:100AC20037952E40047F0B8033C3E538952FE537E9
:100AD200952E502B7F0C8024E4FF8020D3E538959F
:100AE2002FE537952E40047F158011C3E538952FE9
:100AF200E537952E50047F0B8002E4FF120EE68547
:060B020021378522382294
:0210C6008F3564
:1010C800753607AF351209C21210741536E536D3D6
:0410D800940050EF41
:0110DC0022F1
:10110A00751405E4F515AF15120EE61514E514D39A
:04111A00940050F2FB
:01111E0022AE
:020E9F008F14AE
:100EA100E4F515121074121074D3E527948CE5261D
:100EB10094004030E514B4010DD3E52994F4E528FC
:100EC100940140028010E514B40212D3E52294F497
:100ED100E52194014007AF15120EE680C9AF141247
:040EE10009C280C200
:010EE50022EA
:101032008F148D15121074E515D3940040151210FB
:1010420074E514AF147005120EE680031209C2157E
:041052001580E422FF
:060C9C008F148D158B166C
:100CA200E4F517121074E51564017038C3E5299450
:100CB2002CE52894014007E516D394004075E5140D
:100CC200B4010DD3E52994F4E5289401400280484B
:100CD200E514B4020DD3E52294F4E5219401403FDA
:100CE2008036803BC3E522942CE52194014007E540
:100CF20016D39400403DE514B4010DD3E52994F4D4
:100D0200E528940140028010E514B40212D3E522D2
:100D120094F4E52194014007AF17120EE68005AF67
:100D2200141209C2E516D394005003020CA515163D
:030D3200020CA50B
:010D3500229B
:020B08008F1646
:100B0A00E4F517F518751903751A03751B04121005
:100B1A007420920E30940BD293AF19120FBA0517A4
:100B2A0080EC30920E20940BD293AF1A120F8F05DD
:100B3A001880DB209278209475D293E4F51CE51C8A
:100B4A00C3951B5010AF19120FBA7FF47E01121011
:100B5A0090051C80E9E51B8519F0A4FF120F8FE4AC
:100B6A00F51CE51CC3951B5010AF1A120F8F7FF4AA
:100B7A007E01121090051C80E9E51B851AF0A4FF7E
:100B8A00120FBAE516B40113E51B851AF0A4FF1279
:100B9A000FBAE51B2517F517020B18E51B851AF086
:100BAA00A4FF120F8FE51B2518F518020B182092C7
:100BBA0003020B18209403020B18C293E517851938
:100BCA00F0A4FF120FBAE518851AF0A4FF120F8FCE
:010BDA0022F8
:050F5C008F14ED602D73
:100F610075150FE514AF15B40205120F8F8003122A
:100F71000FBAAF14120B08E514AF15B40205120F26
:0D0F8100BA8003120F8F7F4D7E0112109079
:010F8E002240
:0C0FFF00022E0082023300240231002484
:10111F007C007D0A12095FEF1F70011E144E70F7DD
:01112F00229D
:10109000AB07AA060BBB00010AEB1B70011A144A2E
:0C10A00060097F847E0312111F80EE2285
:03002300020E5278
:070E5200C0E0C0D075D0081C
:100E5900309820AF99C298E52B2408FDE433FCE5CE
:100E69002D6D7001EC600CAE2D052DEE5407243963
:100E7900F8A60F30991BC299E52C65306011AF2C8B
:100E8900052CEF54072441F8E6F599C2018002C206
:010E99000058
:050E9A00D0D0D0E032D1
:10100C00200122200005D2008F9922C2ACAE3005FF
:10101C0030EE54072441F8A607E530652C540770D0
:06102C0002D201D2AC2249
:1010F400AD07BD0A082001FD7F0D12100C2001FD73
:06110400AF0512100C22E1
:1010DD00E52D652B60FAC2ACAF2B052BEF54072421
:0610ED0039F8E6FFD2AC69
:0110F30022DA
:10105600E4F52BF52DF52CF530C200C201438920AD
:0E106600759850758DFD758BFDD28ED2AC2223
:06115200121056D2AF227C
:100BDB007510057511017512027513027D14AF1195
:100BEB00120E9F12115DAF12120E9F7D01AF1112EB
:100BFB000F5C121158AF11120E9F7D01AF11120F26
:100C0B005C121158AF11120E9F121158AF11120E28
:100C1B009F7D01AF11120F5C121158AF11120E9F75
:100C2B0012115DAF12120E9F12115D7B05AD12AF4B
:100C3B0012120C9C7D07AF111210321211581211A7
:100C4B000AAF11120E9F7D01AF11120F5C121158DA
:100C5B00AF11120E9F7D01AF11120F5C752E007537
:100C6B002FC8121140AF12120E9F12115D752E007C
:100C7B00752F82AF12120E9F1211587D14AF1112E5
:100C8B001032121158AF12120E9F7F107E270210D6
:010C9B0090C8
:1010AC00D292D294C2937FD07E071210901211521A
:0A10BC00121074120BDBE4FEFF2299
:10080000020954EC5D046005E85904700302094ACA
:10081000120915580460F6EC4860F2EC7004FDFE15
:10082000FF22C860DB2481C85009C39860025006CB
:100830000209519850CAF582E9294B4A7005AB82EA
:1008400002094075F0007C1A7880C3EF9BEE9AEDA8
:1008500099400DC3EF9BFFEE9AFEED99FDE842F043
:10086000DC23ACF0D0E0FFD0E0FED0E0FDAB822096
:10087000E7101BEB60BAEC2CFCEF33FFEE33FEED20
:1008800033FD02092CE803F830E705C0F075F000ED
:10089000EF2FFFEE33FEED33FD40B830E7C280AA04
:1008A00075F020800E75F010800575F0087D007ED3
:1008B000007F003392D530D5031209B4EC334010D9
:1008C000EF33FFEE33FEED33FDEC33FCD5F0ED22DC
:0E08D000E5F0247EA2D513CC92E7CDCEFF2218
:1008DE00EDD2E7CD33EC3392D524814006E4FFFE12
:1008EE00FDFC22FCE4CFCECDCC24E0501174FF8071
:1008FE00EDC3CC13CCCD13CDCE13CECF13CF04700E
:07090E00F030D5DE0209B450
:10091500E9D2E7C933E833F892D5EDD2E7CD33EC28
:0709250033FC5002B2D522A1
:10092C00EC30E7100FBF000C0EBE00080DBD00042C
:10093C000BEB6014A2D5EB13FCED92E7FD2274FFD8
:10094C00FCFDFEFF22E480F8A2D574FF13FC7D8031
:03095C00E480EF45
:100DD2000210ACE493A3F8E493A34003F68001F27B
:100DE20008DFF48029E493A3F85407240CC8C33322
:100DF200C4540F4420C8834004F456800146F6DFF1
:100E0200E4800B0102040810204080900FE5E47E8C
:100E1200019360BCA3FF543F30E509541FFEE493E5
:100E2200A360010ECF54C025E060A840B8E493A3AC
:100E3200FAE493A3F8E493A3C8C582C8CAC583CAD7
:100E4200F0A3C8C582C8CAC583CADFE9DEE780BE8F
:01100B0000E4
:10095F00BC000BBE0029EF8DF084FFADF022E4CC7C
:10096F00F875F008EF2FFFEE33FEEC33FCEE9DEC45
:10097F00984005FCEE9DFE0FD5F0E9E4CEFD22ED8B
:10098F00F8F5F0EE8420D21CFEADF075F008EF2FD5
:10099F00FFED33FD4007985006D5F0F222C398FDC6
:0509AF000FD5F0EA2263
:0E09B400C3E49FFFE49EFEE49DFDE49CFC2254
:00000001FF
